{
  "_format": "hh-sol-artifact-1",
  "contractName": "TodoList",
  "sourceName": "contracts/TodoList.sol",
  "abi": [
    {
      "inputs": [
        {
          "internalType": "string",
          "name": "_title",
          "type": "string"
        },
        {
          "internalType": "bool",
          "name": "_isCompleted",
          "type": "bool"
        }
      ],
      "name": "addTask",
      "outputs": [],
      "stateMutability": "nonpayable",
      "type": "function"
    },
    {
      "inputs": [],
      "name": "getList",
      "outputs": [
        {
          "components": [
            {
              "internalType": "uint256",
              "name": "id",
              "type": "uint256"
            },
            {
              "internalType": "string",
              "name": "title",
              "type": "string"
            },
            {
              "internalType": "bool",
              "name": "isCompleted",
              "type": "bool"
            }
          ],
          "internalType": "struct TodoList.Todo[]",
          "name": "",
          "type": "tuple[]"
        }
      ],
      "stateMutability": "view",
      "type": "function"
    },
    {
      "inputs": [
        {
          "internalType": "uint256",
          "name": "_id",
          "type": "uint256"
        }
      ],
      "name": "markTask",
      "outputs": [],
      "stateMutability": "nonpayable",
      "type": "function"
    }
  ],
  "bytecode": "0x608060405234801561001057600080fd5b50610cd5806100206000396000f3fe608060405234801561001057600080fd5b50600436106100415760003560e01c806320df45811461004657806357e240ee14610062578063942b765a1461007e575b600080fd5b610060600480360381019061005b919061068b565b61009c565b005b61007c6004803603810190610077919061071d565b6101fb565b005b6100866103a7565b60405161009391906108f9565b60405180910390f35b6000600180549050905060016040518060600160405280838152602001858152602001841515815250908060018154018082558091505060019003906000526020600020906003020160009091909190915060008201518160000155602082015181600101908161010d9190610b27565b5060408201518160020160006101000a81548160ff02191690831515021790555050506000803373ffffffffffffffffffffffffffffffffffffffff1673ffffffffffffffffffffffffffffffffffffffff168152602001908152602001600020604051806060016040528083815260200185815260200184151581525090806001815401808255809150506001900390600052602060002090600302016000909190919091506000820151816000015560208201518160010190816101d39190610b27565b5060408201518160020160006101000a81548160ff0219169083151502179055505050505050565b60005b6001805490508110156103a35781600182815481106102205761021f610bf9565b5b90600052602060002090600302016000015403610390576001818154811061024b5761024a610bf9565b5b906000526020600020906003020160020160009054906101000a900460ff16156001828154811061027f5761027e610bf9565b5b906000526020600020906003020160020160006101000a81548160ff0219169083151502179055506000803373ffffffffffffffffffffffffffffffffffffffff1673ffffffffffffffffffffffffffffffffffffffff16815260200190815260200160002081815481106102f7576102f6610bf9565b5b906000526020600020906003020160020160009054906101000a900460ff16156000803373ffffffffffffffffffffffffffffffffffffffff1673ffffffffffffffffffffffffffffffffffffffff168152602001908152602001600020828154811061036757610366610bf9565b5b906000526020600020906003020160020160006101000a81548160ff0219169083151502179055505b808061039b90610c57565b9150506101fe565b5050565b60606000803373ffffffffffffffffffffffffffffffffffffffff1673ffffffffffffffffffffffffffffffffffffffff168152602001908152602001600020805480602002602001604051908101604052809291908181526020016000905b828210156104f05783829060005260206000209060030201604051806060016040529081600082015481526020016001820180546104449061094a565b80601f01602080910402602001604051908101604052809291908181526020018280546104709061094a565b80156104bd5780601f10610492576101008083540402835291602001916104bd565b820191906000526020600020905b8154815290600101906020018083116104a057829003601f168201915b505050505081526020016002820160009054906101000a900460ff16151515158152505081526020019060010190610407565b50505050905090565b6000604051905090565b600080fd5b600080fd5b600080fd5b600080fd5b6000601f19601f8301169050919050565b7f4e487b7100000000000000000000000000000000000000000000000000000000600052604160045260246000fd5b61056082610517565b810181811067ffffffffffffffff8211171561057f5761057e610528565b5b80604052505050565b60006105926104f9565b905061059e8282610557565b919050565b600067ffffffffffffffff8211156105be576105bd610528565b5b6105c782610517565b9050602081019050919050565b82818337600083830152505050565b60006105f66105f1846105a3565b610588565b90508281526020810184848401111561061257610611610512565b5b61061d8482856105d4565b509392505050565b600082601f83011261063a5761063961050d565b5b813561064a8482602086016105e3565b91505092915050565b60008115159050919050565b61066881610653565b811461067357600080fd5b50565b6000813590506106858161065f565b92915050565b600080604083850312156106a2576106a1610503565b5b600083013567ffffffffffffffff8111156106c0576106bf610508565b5b6106cc85828601610625565b92505060206106dd85828601610676565b9150509250929050565b6000819050919050565b6106fa816106e7565b811461070557600080fd5b50565b600081359050610717816106f1565b92915050565b60006020828403121561073357610732610503565b5b600061074184828501610708565b91505092915050565b600081519050919050565b600082825260208201905092915050565b6000819050602082019050919050565b61077f816106e7565b82525050565b600081519050919050565b600082825260208201905092915050565b60005b838110156107bf5780820151818401526020810190506107a4565b60008484015250505050565b60006107d682610785565b6107e08185610790565b93506107f08185602086016107a1565b6107f981610517565b840191505092915050565b61080d81610653565b82525050565b600060608301600083015161082b6000860182610776565b506020830151848203602086015261084382826107cb565b91505060408301516108586040860182610804565b508091505092915050565b600061086f8383610813565b905092915050565b6000602082019050919050565b600061088f8261074a565b6108998185610755565b9350836020820285016108ab85610766565b8060005b858110156108e757848403895281516108c88582610863565b94506108d383610877565b925060208a019950506001810190506108af565b50829750879550505050505092915050565b600060208201905081810360008301526109138184610884565b905092915050565b7f4e487b7100000000000000000000000000000000000000000000000000000000600052602260045260246000fd5b6000600282049050600182168061096257607f821691505b6020821081036109755761097461091b565b5b50919050565b60008190508160005260206000209050919050565b60006020601f8301049050919050565b600082821b905092915050565b6000600883026109dd7fffffffffffffffffffffffffffffffffffffffffffffffffffffffffffffffff826109a0565b6109e786836109a0565b95508019841693508086168417925050509392505050565b6000819050919050565b6000610a24610a1f610a1a846106e7565b6109ff565b6106e7565b9050919050565b6000819050919050565b610a3e83610a09565b610a52610a4a82610a2b565b8484546109ad565b825550505050565b600090565b610a67610a5a565b610a72818484610a35565b505050565b5b81811015610a9657610a8b600082610a5f565b600181019050610a78565b5050565b601f821115610adb57610aac8161097b565b610ab584610990565b81016020851015610ac4578190505b610ad8610ad085610990565b830182610a77565b50505b505050565b600082821c905092915050565b6000610afe60001984600802610ae0565b1980831691505092915050565b6000610b178383610aed565b9150826002028217905092915050565b610b3082610785565b67ffffffffffffffff811115610b4957610b48610528565b5b610b53825461094a565b610b5e828285610a9a565b600060209050601f831160018114610b915760008415610b7f578287015190505b610b898582610b0b565b865550610bf1565b601f198416610b9f8661097b565b60005b82811015610bc757848901518255600182019150602085019450602081019050610ba2565b86831015610be45784890151610be0601f891682610aed565b8355505b6001600288020188555050505b505050505050565b7f4e487b7100000000000000000000000000000000000000000000000000000000600052603260045260246000fd5b7f4e487b7100000000000000000000000000000000000000000000000000000000600052601160045260246000fd5b6000610c62826106e7565b91507fffffffffffffffffffffffffffffffffffffffffffffffffffffffffffffffff8203610c9457610c93610c28565b5b60018201905091905056fea264697066735822122076baefd8c1492956e53db9fb6037241589a05a0781a14540412a6537ce5e85ec64736f6c63430008120033",
  "linkReferences": {},
  "deployedLinkReferences": {}
}